{
  "contractName": "DocOwnership",
  "abi": [
    {
      "anonymous": false,
      "inputs": [
        {
          "indexed": true,
          "internalType": "address",
          "name": "oldOwner",
          "type": "address"
        },
        {
          "indexed": true,
          "internalType": "address",
          "name": "newOwner",
          "type": "address"
        }
      ],
      "name": "OwnerSet",
      "type": "event"
    },
    {
      "inputs": [
        {
          "internalType": "address",
          "name": "newOwner",
          "type": "address"
        }
      ],
      "name": "changeOwner",
      "outputs": [],
      "stateMutability": "nonpayable",
      "type": "function"
    },
    {
      "inputs": [],
      "name": "documentCount",
      "outputs": [
        {
          "internalType": "uint128",
          "name": "",
          "type": "uint128"
        }
      ],
      "stateMutability": "view",
      "type": "function",
      "constant": true
    },
    {
      "inputs": [
        {
          "internalType": "uint256",
          "name": "",
          "type": "uint256"
        }
      ],
      "name": "documents",
      "outputs": [
        {
          "internalType": "uint256",
          "name": "id",
          "type": "uint256"
        },
        {
          "internalType": "string",
          "name": "name",
          "type": "string"
        }
      ],
      "stateMutability": "view",
      "type": "function",
      "constant": true
    },
    {
      "inputs": [],
      "name": "getOwner",
      "outputs": [
        {
          "internalType": "address",
          "name": "",
          "type": "address"
        }
      ],
      "stateMutability": "view",
      "type": "function",
      "constant": true
    },
    {
      "inputs": [
        {
          "internalType": "address",
          "name": "",
          "type": "address"
        },
        {
          "internalType": "uint256",
          "name": "",
          "type": "uint256"
        }
      ],
      "name": "ownerToItems",
      "outputs": [
        {
          "internalType": "uint256",
          "name": "",
          "type": "uint256"
        }
      ],
      "stateMutability": "view",
      "type": "function",
      "constant": true
    },
    {
      "inputs": [
        {
          "internalType": "address",
          "name": "",
          "type": "address"
        },
        {
          "internalType": "uint256",
          "name": "",
          "type": "uint256"
        }
      ],
      "name": "trustedToItems",
      "outputs": [
        {
          "internalType": "uint256",
          "name": "",
          "type": "uint256"
        }
      ],
      "stateMutability": "view",
      "type": "function",
      "constant": true
    },
    {
      "inputs": [
        {
          "internalType": "string",
          "name": "_name",
          "type": "string"
        },
        {
          "internalType": "address[]",
          "name": "_trusted",
          "type": "address[]"
        }
      ],
      "name": "publishDocument",
      "outputs": [],
      "stateMutability": "nonpayable",
      "type": "function"
    },
    {
      "inputs": [
        {
          "internalType": "address",
          "name": "_user",
          "type": "address"
        }
      ],
      "name": "getDocsForAddress",
      "outputs": [
        {
          "components": [
            {
              "internalType": "uint256",
              "name": "id",
              "type": "uint256"
            },
            {
              "internalType": "string",
              "name": "name",
              "type": "string"
            },
            {
              "internalType": "address[]",
              "name": "trusted",
              "type": "address[]"
            }
          ],
          "internalType": "struct DocOwnership.Document[]",
          "name": "",
          "type": "tuple[]"
        },
        {
          "components": [
            {
              "internalType": "uint256",
              "name": "id",
              "type": "uint256"
            },
            {
              "internalType": "string",
              "name": "name",
              "type": "string"
            },
            {
              "internalType": "address[]",
              "name": "trusted",
              "type": "address[]"
            }
          ],
          "internalType": "struct DocOwnership.Document[]",
          "name": "",
          "type": "tuple[]"
        }
      ],
      "stateMutability": "view",
      "type": "function",
      "constant": true
    }
  ],
  "bytecode": "0x60806040526000600260006101000a8154816fffffffffffffffffffffffffffffffff02191690836fffffffffffffffffffffffffffffffff16021790555034801561004a57600080fd5b50336000806101000a81548173ffffffffffffffffffffffffffffffffffffffff021916908373ffffffffffffffffffffffffffffffffffffffff16021790555060008054906101000a900473ffffffffffffffffffffffffffffffffffffffff1673ffffffffffffffffffffffffffffffffffffffff16600073ffffffffffffffffffffffffffffffffffffffff167f342827c97908e5e2f71151c08502a66d44b6f758e3ac2f1de95f02eb95f0a73560405160405180910390a3611a44806101156000396000f3fe608060405234801561001057600080fd5b50600436106100885760003560e01c8063acc698731161005b578063acc6987314610115578063c2ed2b0514610145578063e6ef6ef214610176578063fe9c22cb146101a757610088565b8063612d5f341461008d578063893d20e8146100bd578063a5b16b2e146100db578063a6f9dae1146100f9575b600080fd5b6100a760048036038101906100a29190610f16565b6101c3565b6040516100b49190610f65565b60405180910390f35b6100c56101f4565b6040516100d29190610f8f565b60405180910390f35b6100e361021d565b6040516100f09190610fd5565b60405180910390f35b610113600480360381019061010e9190610ff0565b61023f565b005b61012f600480360381019061012a9190610f16565b61038a565b60405161013c9190610f65565b60405180910390f35b61015f600480360381019061015a919061101d565b6103bb565b60405161016d9291906110da565b60405180910390f35b610190600480360381019061018b9190610ff0565b610477565b60405161019e92919061133a565b60405180910390f35b6101c160048036038101906101bc919061156e565b610495565b005b600460205281600052604060002081815481106101df57600080fd5b90600052602060002001600091509150505481565b60008060009054906101000a900473ffffffffffffffffffffffffffffffffffffffff16905090565b600260009054906101000a90046fffffffffffffffffffffffffffffffff1681565b60008054906101000a900473ffffffffffffffffffffffffffffffffffffffff1673ffffffffffffffffffffffffffffffffffffffff163373ffffffffffffffffffffffffffffffffffffffff16146102cd576040517f08c379a00000000000000000000000000000000000000000000000000000000081526004016102c490611632565b60405180910390fd5b8073ffffffffffffffffffffffffffffffffffffffff1660008054906101000a900473ffffffffffffffffffffffffffffffffffffffff1673ffffffffffffffffffffffffffffffffffffffff167f342827c97908e5e2f71151c08502a66d44b6f758e3ac2f1de95f02eb95f0a73560405160405180910390a3806000806101000a81548173ffffffffffffffffffffffffffffffffffffffff021916908373ffffffffffffffffffffffffffffffffffffffff16021790555050565b600360205281600052604060002081815481106103a657600080fd5b90600052602060002001600091509150505481565b600181815481106103cb57600080fd5b90600052602060002090600302016000915090508060000154908060010180546103f490611681565b80601f016020809104026020016040519081016040528092919081815260200182805461042090611681565b801561046d5780601f106104425761010080835404028352916020019161046d565b820191906000526020600020905b81548152906001019060200180831161045057829003601f168201915b5050505050905082565b6060806104838361085a565b61048c84610b00565b91509150915091565b60008054906101000a900473ffffffffffffffffffffffffffffffffffffffff1673ffffffffffffffffffffffffffffffffffffffff163373ffffffffffffffffffffffffffffffffffffffff1614610523576040517f08c379a000000000000000000000000000000000000000000000000000000000815260040161051a90611632565b60405180910390fd5b60016040518060600160405280600260009054906101000a90046fffffffffffffffffffffffffffffffff166fffffffffffffffffffffffffffffffff168152602001848152602001600067ffffffffffffffff8111156105875761058661137b565b5b6040519080825280602002602001820160405280156105b55781602001602082028036833780820191505090505b508152509080600181540180825580915050600190039060005260206000209060030201600090919091909150600082015181600001556020820151816001019081610601919061185e565b50604082015181600201908051906020019061061e929190610da6565b505050600360003373ffffffffffffffffffffffffffffffffffffffff1673ffffffffffffffffffffffffffffffffffffffff168152602001908152602001600020600260009054906101000a90046fffffffffffffffffffffffffffffffff1690806001815401808255809150506001900390600052602060002001600090916fffffffffffffffffffffffffffffffff16909190915055806001600260009054906101000a90046fffffffffffffffffffffffffffffffff166fffffffffffffffffffffffffffffffff16815481106106fc576106fb611930565b5b90600052602060002090600302016002019080519060200190610720929190610da6565b5060005b81518110156107f0576004600083838151811061074457610743611930565b5b602002602001015173ffffffffffffffffffffffffffffffffffffffff1673ffffffffffffffffffffffffffffffffffffffff168152602001908152602001600020600260009054906101000a90046fffffffffffffffffffffffffffffffff1690806001815401808255809150506001900390600052602060002001600090916fffffffffffffffffffffffffffffffff1690919091505580806107e89061198e565b915050610724565b506002600081819054906101000a90046fffffffffffffffffffffffffffffffff168092919061081f906119d6565b91906101000a8154816fffffffffffffffffffffffffffffffff02191690836fffffffffffffffffffffffffffffffff160217905550505050565b60606000600460008473ffffffffffffffffffffffffffffffffffffffff1673ffffffffffffffffffffffffffffffffffffffff1681526020019081526020016000208054806020026020016040519081016040528092919081815260200182805480156108e757602002820191906000526020600020905b8154815260200190600101908083116108d3575b505050505090506000815167ffffffffffffffff81111561090b5761090a61137b565b5b60405190808252806020026020018201604052801561094457816020015b610931610e30565b8152602001906001900390816109295790505b50905060005b8251811015610af557600183828151811061096857610967611930565b5b60200260200101518154811061098157610980611930565b5b9060005260206000209060030201604051806060016040529081600082015481526020016001820180546109b490611681565b80601f01602080910402602001604051908101604052809291908181526020018280546109e090611681565b8015610a2d5780601f10610a0257610100808354040283529160200191610a2d565b820191906000526020600020905b815481529060010190602001808311610a1057829003601f168201915b5050505050815260200160028201805480602002602001604051908101604052809291908181526020018280548015610abb57602002820191906000526020600020905b8160009054906101000a900473ffffffffffffffffffffffffffffffffffffffff1673ffffffffffffffffffffffffffffffffffffffff1681526020019060010190808311610a71575b505050505081525050828281518110610ad757610ad6611930565b5b60200260200101819052508080610aed9061198e565b91505061094a565b508092505050919050565b60606000600360008473ffffffffffffffffffffffffffffffffffffffff1673ffffffffffffffffffffffffffffffffffffffff168152602001908152602001600020805480602002602001604051908101604052809291908181526020018280548015610b8d57602002820191906000526020600020905b815481526020019060010190808311610b79575b505050505090506000815167ffffffffffffffff811115610bb157610bb061137b565b5b604051908082528060200260200182016040528015610bea57816020015b610bd7610e30565b815260200190600190039081610bcf5790505b50905060005b8251811015610d9b576001838281518110610c0e57610c0d611930565b5b602002602001015181548110610c2757610c26611930565b5b906000526020600020906003020160405180606001604052908160008201548152602001600182018054610c5a90611681565b80601f0160208091040260200160405190810160405280929190818152602001828054610c8690611681565b8015610cd35780601f10610ca857610100808354040283529160200191610cd3565b820191906000526020600020905b815481529060010190602001808311610cb657829003601f168201915b5050505050815260200160028201805480602002602001604051908101604052809291908181526020018280548015610d6157602002820191906000526020600020905b8160009054906101000a900473ffffffffffffffffffffffffffffffffffffffff1673ffffffffffffffffffffffffffffffffffffffff1681526020019060010190808311610d17575b505050505081525050828281518110610d7d57610d7c611930565b5b60200260200101819052508080610d939061198e565b915050610bf0565b508092505050919050565b828054828255906000526020600020908101928215610e1f579160200282015b82811115610e1e5782518260006101000a81548173ffffffffffffffffffffffffffffffffffffffff021916908373ffffffffffffffffffffffffffffffffffffffff16021790555091602001919060010190610dc6565b5b509050610e2c9190610e51565b5090565b60405180606001604052806000815260200160608152602001606081525090565b5b80821115610e6a576000816000905550600101610e52565b5090565b6000604051905090565b600080fd5b600080fd5b600073ffffffffffffffffffffffffffffffffffffffff82169050919050565b6000610ead82610e82565b9050919050565b610ebd81610ea2565b8114610ec857600080fd5b50565b600081359050610eda81610eb4565b92915050565b6000819050919050565b610ef381610ee0565b8114610efe57600080fd5b50565b600081359050610f1081610eea565b92915050565b60008060408385031215610f2d57610f2c610e78565b5b6000610f3b85828601610ecb565b9250506020610f4c85828601610f01565b9150509250929050565b610f5f81610ee0565b82525050565b6000602082019050610f7a6000830184610f56565b92915050565b610f8981610ea2565b82525050565b6000602082019050610fa46000830184610f80565b92915050565b60006fffffffffffffffffffffffffffffffff82169050919050565b610fcf81610faa565b82525050565b6000602082019050610fea6000830184610fc6565b92915050565b60006020828403121561100657611005610e78565b5b600061101484828501610ecb565b91505092915050565b60006020828403121561103357611032610e78565b5b600061104184828501610f01565b91505092915050565b600081519050919050565b600082825260208201905092915050565b60005b83811015611084578082015181840152602081019050611069565b60008484015250505050565b6000601f19601f8301169050919050565b60006110ac8261104a565b6110b68185611055565b93506110c6818560208601611066565b6110cf81611090565b840191505092915050565b60006040820190506110ef6000830185610f56565b818103602083015261110181846110a1565b90509392505050565b600081519050919050565b600082825260208201905092915050565b6000819050602082019050919050565b61113f81610ee0565b82525050565b600082825260208201905092915050565b60006111618261104a565b61116b8185611145565b935061117b818560208601611066565b61118481611090565b840191505092915050565b600081519050919050565b600082825260208201905092915050565b6000819050602082019050919050565b6111c481610ea2565b82525050565b60006111d683836111bb565b60208301905092915050565b6000602082019050919050565b60006111fa8261118f565b611204818561119a565b935061120f836111ab565b8060005b8381101561124057815161122788826111ca565b9750611232836111e2565b925050600181019050611213565b5085935050505092915050565b60006060830160008301516112656000860182611136565b506020830151848203602086015261127d8282611156565b9150506040830151848203604086015261129782826111ef565b9150508091505092915050565b60006112b0838361124d565b905092915050565b6000602082019050919050565b60006112d08261110a565b6112da8185611115565b9350836020820285016112ec85611126565b8060005b85811015611328578484038952815161130985826112a4565b9450611314836112b8565b925060208a019950506001810190506112f0565b50829750879550505050505092915050565b6000604082019050818103600083015261135481856112c5565b9050818103602083015261136881846112c5565b90509392505050565b600080fd5b600080fd5b7f4e487b7100000000000000000000000000000000000000000000000000000000600052604160045260246000fd5b6113b382611090565b810181811067ffffffffffffffff821117156113d2576113d161137b565b5b80604052505050565b60006113e5610e6e565b90506113f182826113aa565b919050565b600067ffffffffffffffff8211156114115761141061137b565b5b61141a82611090565b9050602081019050919050565b82818337600083830152505050565b6000611449611444846113f6565b6113db565b90508281526020810184848401111561146557611464611376565b5b611470848285611427565b509392505050565b600082601f83011261148d5761148c611371565b5b813561149d848260208601611436565b91505092915050565b600067ffffffffffffffff8211156114c1576114c061137b565b5b602082029050602081019050919050565b600080fd5b60006114ea6114e5846114a6565b6113db565b9050808382526020820190506020840283018581111561150d5761150c6114d2565b5b835b8181101561153657806115228882610ecb565b84526020840193505060208101905061150f565b5050509392505050565b600082601f83011261155557611554611371565b5b81356115658482602086016114d7565b91505092915050565b6000806040838503121561158557611584610e78565b5b600083013567ffffffffffffffff8111156115a3576115a2610e7d565b5b6115af85828601611478565b925050602083013567ffffffffffffffff8111156115d0576115cf610e7d565b5b6115dc85828601611540565b9150509250929050565b7f43616c6c6572206973206e6f74206f776e657200000000000000000000000000600082015250565b600061161c601383611055565b9150611627826115e6565b602082019050919050565b6000602082019050818103600083015261164b8161160f565b9050919050565b7f4e487b7100000000000000000000000000000000000000000000000000000000600052602260045260246000fd5b6000600282049050600182168061169957607f821691505b6020821081036116ac576116ab611652565b5b50919050565b60008190508160005260206000209050919050565b60006020601f8301049050919050565b600082821b905092915050565b6000600883026117147fffffffffffffffffffffffffffffffffffffffffffffffffffffffffffffffff826116d7565b61171e86836116d7565b95508019841693508086168417925050509392505050565b6000819050919050565b600061175b61175661175184610ee0565b611736565b610ee0565b9050919050565b6000819050919050565b61177583611740565b61178961178182611762565b8484546116e4565b825550505050565b600090565b61179e611791565b6117a981848461176c565b505050565b5b818110156117cd576117c2600082611796565b6001810190506117af565b5050565b601f821115611812576117e3816116b2565b6117ec846116c7565b810160208510156117fb578190505b61180f611807856116c7565b8301826117ae565b50505b505050565b600082821c905092915050565b600061183560001984600802611817565b1980831691505092915050565b600061184e8383611824565b9150826002028217905092915050565b6118678261104a565b67ffffffffffffffff8111156118805761187f61137b565b5b61188a8254611681565b6118958282856117d1565b600060209050601f8311600181146118c857600084156118b6578287015190505b6118c08582611842565b865550611928565b601f1984166118d6866116b2565b60005b828110156118fe578489015182556001820191506020850194506020810190506118d9565b8683101561191b5784890151611917601f891682611824565b8355505b6001600288020188555050505b505050505050565b7f4e487b7100000000000000000000000000000000000000000000000000000000600052603260045260246000fd5b7f4e487b7100000000000000000000000000000000000000000000000000000000600052601160045260246000fd5b600061199982610ee0565b91507fffffffffffffffffffffffffffffffffffffffffffffffffffffffffffffffff82036119cb576119ca61195f565b5b600182019050919050565b60006119e182610faa565b91506fffffffffffffffffffffffffffffffff8203611a0357611a0261195f565b5b60018201905091905056fea2646970667358221220db82d81aba99a411a6deb4415072c2d09f9ab49ce5534ca64a066aff1f2a893264736f6c63430008110033",
  "immutableReferences": {},
  "source": "// SPDX-License-Identifier: GPL-3.0\r\n\r\npragma solidity >=0.7.0 <0.9.0;\r\n\r\nimport \"./Owner.sol\";\r\n\r\n/**\r\n * @title Doc ownership\r\n * @dev Set & change ownership of documents stored in Objkt\r\n */\r\ncontract DocOwnership is Owner {\r\n\r\n    /**\r\n * @dev In the future ids are gonna be randomized\r\n */\r\n    struct Document {\r\n        uint id;\r\n        string name;\r\n        address[] trusted;\r\n    }\r\n\r\n    Document[] public documents;\r\n\r\n    uint128 public documentCount = 0;\r\n\r\n    mapping(address => uint[]) public ownerToItems;\r\n    mapping(address => uint[]) public trustedToItems;\r\n\r\n    function publishDocument(string memory _name, address[] memory _trusted) public isOwner {\r\n        documents.push(Document(documentCount, _name, new address[](0)));\r\n        ownerToItems[msg.sender].push(documentCount);\r\n        documents[documentCount].trusted = _trusted;\r\n        for (uint i = 0; i < _trusted.length; i++) {\r\n            trustedToItems[_trusted[i]].push(documentCount);\r\n        }\r\n        documentCount++;\r\n    }\r\n\r\n    function _getOwnedDocs(address _user)internal view returns( Document[] memory){\r\n        uint[] memory myDocs = ownerToItems[_user];\r\n        Document[] memory result = new Document[](myDocs.length);\r\n        for (uint i = 0; i < myDocs.length; i++) {\r\n            result[i] = documents[myDocs[i]];\r\n        }\r\n        return result;\r\n    }\r\n\r\n    function _getTrustedDocs(address _user)internal view returns( Document[] memory){\r\n        uint[] memory myDocs = trustedToItems[_user];\r\n        Document[] memory result = new Document[](myDocs.length);\r\n        for (uint i = 0; i < myDocs.length; i++) {\r\n            result[i] = documents[myDocs[i]];\r\n        }\r\n        return result;\r\n    }\r\n\r\n    function getDocsForAddress(address _user)public view returns( Document[] memory, Document[] memory){\r\n        return (_getTrustedDocs(_user), _getOwnedDocs(_user));\r\n    }\r\n\r\n}",
  "sourcePath": "F:\\files\\projects\\_workpod\\smartContracts\\contracts\\DocOwnership.sol",
  "compiler": {
    "name": "solc",
    "version": "0.8.17+commit.8df45f5f.Emscripten.clang"
  },
  "schemaVersion": "3.4.11",
  "updatedAt": "2022-12-05T14:20:50.848Z",
  "networkType": "ethereum",
  "devdoc": {
    "details": "Set & change ownership of documents stored in Objkt",
    "kind": "dev",
    "methods": {
      "changeOwner(address)": {
        "details": "Change owner",
        "params": {
          "newOwner": "address of new owner"
        }
      },
      "getOwner()": {
        "details": "Return owner address ",
        "returns": {
          "_0": "address of owner"
        }
      }
    },
    "title": "Doc ownership",
    "version": 1
  },
  "userdoc": {
    "kind": "user",
    "methods": {},
    "version": 1
  }
}